{
    "contractName": "BallinChain",
    "abi": [
        {
            "inputs": [],
            "payable": false,
            "stateMutability": "nonpayable",
            "type": "constructor"
        },
        {
            "anonymous": false,
            "inputs": [
                {
                    "indexed": false,
                    "internalType": "address",
                    "name": "better",
                    "type": "address"
                },
                {
                    "indexed": false,
                    "internalType": "string",
                    "name": "team",
                    "type": "string"
                }
            ],
            "name": "BetEvent",
            "type": "event"
        },
        {
            "anonymous": false,
            "inputs": [
                {
                    "indexed": false,
                    "internalType": "string",
                    "name": "reason",
                    "type": "string"
                },
                {
                    "indexed": false,
                    "internalType": "uint256",
                    "name": "time",
                    "type": "uint256"
                }
            ],
            "name": "CanceledGame",
            "type": "event"
        },
        {
            "anonymous": false,
            "inputs": [
                {
                    "indexed": false,
                    "internalType": "uint256",
                    "name": "gameId",
                    "type": "uint256"
                },
                {
                    "indexed": false,
                    "internalType": "string",
                    "name": "date",
                    "type": "string"
                }
            ],
            "name": "NewGame",
            "type": "event"
        },
        {
            "anonymous": false,
            "inputs": [
                {
                    "indexed": false,
                    "internalType": "address",
                    "name": "withdrawer",
                    "type": "address"
                },
                {
                    "indexed": false,
                    "internalType": "uint256",
                    "name": "amount",
                    "type": "uint256"
                }
            ],
            "name": "WithdrawalEvent",
            "type": "event"
        },
        {
            "payable": false,
            "stateMutability": "nonpayable",
            "type": "fallback"
        },
        {
            "constant": false,
            "inputs": [
                {
                    "internalType": "uint256",
                    "name": "_gameStart",
                    "type": "uint256"
                },
                {
                    "internalType": "uint256",
                    "name": "_gameEnd",
                    "type": "uint256"
                },
                {
                    "internalType": "string",
                    "name": "_date",
                    "type": "string"
                },
                {
                    "internalType": "string",
                    "name": "_homeTeamName",
                    "type": "string"
                },
                {
                    "internalType": "string",
                    "name": "_homeTeamRecord",
                    "type": "string"
                },
                {
                    "internalType": "string",
                    "name": "_awayTeamName",
                    "type": "string"
                },
                {
                    "internalType": "string",
                    "name": "_awayTeamRecord",
                    "type": "string"
                }
            ],
            "name": "_createGame",
            "outputs": [],
            "payable": false,
            "stateMutability": "nonpayable",
            "type": "function"
        },
        {
            "constant": false,
            "inputs": [
                {
                    "internalType": "uint256",
                    "name": "_gameId",
                    "type": "uint256"
                },
                {
                    "internalType": "string",
                    "name": "_betTeam",
                    "type": "string"
                }
            ],
            "name": "betOnGame",
            "outputs": [
                {
                    "internalType": "bool",
                    "name": "",
                    "type": "bool"
                }
            ],
            "payable": true,
            "stateMutability": "payable",
            "type": "function"
        },
        {
            "constant": false,
            "inputs": [
                {
                    "internalType": "uint256",
                    "name": "_gameId",
                    "type": "uint256"
                }
            ],
            "name": "withdraw",
            "outputs": [
                {
                    "internalType": "bool",
                    "name": "",
                    "type": "bool"
                }
            ],
            "payable": false,
            "stateMutability": "nonpayable",
            "type": "function"
        },
        {
            "constant": false,
            "inputs": [
                {
                    "internalType": "uint256",
                    "name": "_gameId",
                    "type": "uint256"
                },
                {
                    "internalType": "string",
                    "name": "_winner",
                    "type": "string"
                },
                {
                    "internalType": "string",
                    "name": "_score",
                    "type": "string"
                }
            ],
            "name": "updateGameFinal",
            "outputs": [
                {
                    "internalType": "bool",
                    "name": "",
                    "type": "bool"
                }
            ],
            "payable": false,
            "stateMutability": "nonpayable",
            "type": "function"
        },
        {
            "constant": false,
            "inputs": [
                {
                    "internalType": "uint256",
                    "name": "_gameId",
                    "type": "uint256"
                },
                {
                    "internalType": "string",
                    "name": "_reason",
                    "type": "string"
                }
            ],
            "name": "cancelGame",
            "outputs": [
                {
                    "internalType": "bool",
                    "name": "",
                    "type": "bool"
                }
            ],
            "payable": false,
            "stateMutability": "nonpayable",
            "type": "function"
        },
        {
            "constant": true,
            "inputs": [
                {
                    "internalType": "uint256",
                    "name": "_gameId",
                    "type": "uint256"
                }
            ],
            "name": "gameBalance",
            "outputs": [
                {
                    "internalType": "uint256",
                    "name": "",
                    "type": "uint256"
                }
            ],
            "payable": false,
            "stateMutability": "view",
            "type": "function"
        },
        {
            "constant": true,
            "inputs": [
                {
                    "internalType": "uint256",
                    "name": "_gameId",
                    "type": "uint256"
                }
            ],
            "name": "getGamedData",
            "outputs": [
                {
                    "internalType": "uint256",
                    "name": "gameStart",
                    "type": "uint256"
                },
                {
                    "internalType": "uint256",
                    "name": "gameEnd",
                    "type": "uint256"
                },
                {
                    "internalType": "string",
                    "name": "date",
                    "type": "string"
                },
                {
                    "internalType": "string",
                    "name": "homeTeamName",
                    "type": "string"
                },
                {
                    "internalType": "string",
                    "name": "homeTeamRecord",
                    "type": "string"
                },
                {
                    "internalType": "uint256",
                    "name": "homeTeamBetters",
                    "type": "uint256"
                },
                {
                    "internalType": "string",
                    "name": "awayTeamName",
                    "type": "string"
                },
                {
                    "internalType": "string",
                    "name": "awayTeamRecord",
                    "type": "string"
                },
                {
                    "internalType": "uint256",
                    "name": "awayTeamBetters",
                    "type": "uint256"
                },
                {
                    "internalType": "string",
                    "name": "winner",
                    "type": "string"
                },
                {
                    "internalType": "string",
                    "name": "score",
                    "type": "string"
                }
            ],
            "payable": false,
            "stateMutability": "view",
            "type": "function"
        },
        {
            "constant": true,
            "inputs": [
                {
                    "internalType": "string",
                    "name": "_date",
                    "type": "string"
                }
            ],
            "name": "totalGamesToday",
            "outputs": [
                {
                    "internalType": "uint256",
                    "name": "",
                    "type": "uint256"
                }
            ],
            "payable": false,
            "stateMutability": "view",
            "type": "function"
        },
        {
            "constant": true,
            "inputs": [],
            "name": "totalUserBets",
            "outputs": [
                {
                    "internalType": "uint256",
                    "name": "",
                    "type": "uint256"
                }
            ],
            "payable": false,
            "stateMutability": "view",
            "type": "function"
        },
        {
            "constant": true,
            "inputs": [
                {
                    "internalType": "uint256",
                    "name": "_gameId",
                    "type": "uint256"
                }
            ],
            "name": "getGameBetData",
            "outputs": [
                {
                    "internalType": "string",
                    "name": "bettingTeam",
                    "type": "string"
                },
                {
                    "internalType": "uint256",
                    "name": "betAmount",
                    "type": "uint256"
                }
            ],
            "payable": false,
            "stateMutability": "view",
            "type": "function"
        },
        {
            "constant": true,
            "inputs": [
                {
                    "internalType": "uint256",
                    "name": "_index",
                    "type": "uint256"
                }
            ],
            "name": "getGameFromHistory",
            "outputs": [
                {
                    "internalType": "uint256",
                    "name": "",
                    "type": "uint256"
                }
            ],
            "payable": false,
            "stateMutability": "view",
            "type": "function"
        }
    ],
    "bytecode": "0x608060405234801561001057600080fd5b50336000806101000a81548173ffffffffffffffffffffffffffffffffffffffff021916908373ffffffffffffffffffffffffffffffffffffffff160217905550612cb5806100606000396000f3fe60806040526004361061009c5760003560e01c8063916fe60811610064578063916fe608146101d257806395051bb21461020f578063d8d0ac0e1461024d578063dffd6c4714610278578063e1016119146102b5578063f4d6a01e146102f25761009c565b806319034578146100ab57806319be5ad0146100f25780632e1a7d4d1461012f578063647dfd711461016c57806382fe1dfb146101a9575b3480156100a857600080fd5b50005b3480156100b757600080fd5b506100d260048036036100cd9190810190612066565b610322565b6040516100e99b9a99989796959493929190612a2b565b60405180910390f35b3480156100fe57600080fd5b5061011960048036036101149190810190612066565b6108e8565b60405161012691906129e0565b60405180910390f35b34801561013b57600080fd5b5061015660048036036101519190810190612066565b610910565b6040516101639190612835565b60405180910390f35b34801561017857600080fd5b50610193600480360361018e9190810190612021565b610d28565b6040516101a091906129e0565b60405180910390f35b3480156101b557600080fd5b506101d060048036036101cb9190810190612162565b610d56565b005b3480156101de57600080fd5b506101f960048036036101f49190810190612066565b6110a9565b60405161020691906129e0565b60405180910390f35b34801561021b57600080fd5b5061023660048036036102319190810190612066565b6111b6565b604051610244929190612850565b60405180910390f35b34801561025957600080fd5b50610262611319565b60405161026f91906129e0565b60405180910390f35b34801561028457600080fd5b5061029f600480360361029a91908101906120e3565b611363565b6040516102ac9190612835565b60405180910390f35b3480156102c157600080fd5b506102dc60048036036102d7919081019061208f565b6115f3565b6040516102e99190612835565b60405180910390f35b61030c6004803603610307919081019061208f565b61174a565b6040516103199190612835565b60405180910390f35b60008060608060606000606080600060608060018c8154811061034157fe5b9060005260206000209060110201600101549a5060018c8154811061036257fe5b906000526020600020906011020160020154995060018c8154811061038357fe5b90600052602060002090601102016003018054600181600116156101000203166002900480601f0160208091040260200160405190810160405280929190818152602001828054600181600116156101000203166002900480156104285780601f106103fd57610100808354040283529160200191610428565b820191906000526020600020905b81548152906001019060200180831161040b57829003601f168201915b5050505050985060018c8154811061043c57fe5b90600052602060002090601102016004016000018054600181600116156101000203166002900480601f0160208091040260200160405190810160405280929190818152602001828054600181600116156101000203166002900480156104e45780601f106104b9576101008083540402835291602001916104e4565b820191906000526020600020905b8154815290600101906020018083116104c757829003601f168201915b5050505050975060018c815481106104f857fe5b90600052602060002090601102016004016001018054600181600116156101000203166002900480601f0160208091040260200160405190810160405280929190818152602001828054600181600116156101000203166002900480156105a05780601f10610575576101008083540402835291602001916105a0565b820191906000526020600020905b81548152906001019060200180831161058357829003601f168201915b5050505050965060018c815481106105b457fe5b906000526020600020906011020160040160020154955060018c815481106105d857fe5b90600052602060002090601102016008016000018054600181600116156101000203166002900480601f0160208091040260200160405190810160405280929190818152602001828054600181600116156101000203166002900480156106805780601f1061065557610100808354040283529160200191610680565b820191906000526020600020905b81548152906001019060200180831161066357829003601f168201915b5050505050945060018c8154811061069457fe5b90600052602060002090601102016008016001018054600181600116156101000203166002900480601f01602080910402602001604051908101604052809291908181526020018280546001816001161561010002031660029004801561073c5780601f106107115761010080835404028352916020019161073c565b820191906000526020600020905b81548152906001019060200180831161071f57829003601f168201915b5050505050935060018c8154811061075057fe5b906000526020600020906011020160080160020154925060018c8154811061077457fe5b9060005260206000209060110201600c018054600181600116156101000203166002900480601f0160208091040260200160405190810160405280929190818152602001828054600181600116156101000203166002900480156108195780601f106107ee57610100808354040283529160200191610819565b820191906000526020600020905b8154815290600101906020018083116107fc57829003601f168201915b5050505050915060018c8154811061082d57fe5b9060005260206000209060110201600d018054600181600116156101000203166002900480601f0160208091040260200160405190810160405280929190818152602001828054600181600116156101000203166002900480156108d25780601f106108a7576101008083540402835291602001916108d2565b820191906000526020600020905b8154815290600101906020018083116108b557829003601f168201915b5050505050905091939597999b90929496989a50565b6000600182815481106108f757fe5b9060005260206000209060110201600e01549050919050565b6000806001838154811061092057fe5b906000526020600020906011020160100160003373ffffffffffffffffffffffffffffffffffffffff1673ffffffffffffffffffffffffffffffffffffffff16815260200190815260200160002060010154116109b2576040517f08c379a00000000000000000000000000000000000000000000000000000000081526004016109a9906129c0565b60405180910390fd5b6040516020016109c1906127c7565b60405160208183030381529060405280519060200120600183815481106109e457fe5b9060005260206000209060110201600c01604051602001610a0591906127b0565b6040516020818303038152906040528051906020012014158015610a905750604051602001610a33906127c7565b6040516020818303038152906040528051906020012060018381548110610a5657fe5b9060005260206000209060110201600d01604051602001610a7791906127b0565b6040516020818303038152906040528051906020012014155b610acf576040517f08c379a0000000000000000000000000000000000000000000000000000000008152600401610ac6906128a0565b60405180910390fd5b60018281548110610adc57fe5b9060005260206000209060110201600c01604051602001610afd91906127b0565b6040516020818303038152906040528051906020012060018381548110610b2057fe5b906000526020600020906011020160100160003373ffffffffffffffffffffffffffffffffffffffff1673ffffffffffffffffffffffffffffffffffffffff168152602001908152602001600020600001604051602001610b8191906127b0565b6040516020818303038152906040528051906020012014610bd7576040517f08c379a0000000000000000000000000000000000000000000000000000000008152600401610bce90612920565b60405180910390fd5b600060018381548110610be657fe5b906000526020600020906011020160100160003373ffffffffffffffffffffffffffffffffffffffff1673ffffffffffffffffffffffffffffffffffffffff168152602001908152602001600020600101549050600060018481548110610c4957fe5b906000526020600020906011020160100160003373ffffffffffffffffffffffffffffffffffffffff1673ffffffffffffffffffffffffffffffffffffffff168152602001908152602001600020600101819055503373ffffffffffffffffffffffffffffffffffffffff166108fc829081150290604051600060405180830381858888f19350505050158015610ce4573d6000803e3d6000fd5b507f2f174ca282119315c59efaf21147aef438581dabdeb498198ae28964373dd8bc3382604051610d1692919061280c565b60405180910390a16001915050919050565b600060038383604051610d3c929190612780565b908152602001604051809103902080549050905092915050565b6000809054906101000a900473ffffffffffffffffffffffffffffffffffffffff1673ffffffffffffffffffffffffffffffffffffffff163373ffffffffffffffffffffffffffffffffffffffff1614610de5576040517f08c379a0000000000000000000000000000000000000000000000000000000008152600401610ddc90612960565b60405180910390fd5b60006001805490509050610df7611e21565b60405180608001604052808781526020018681526020016000815260200160008152509050610e24611e21565b6040518060800160405280868152602001858152602001600081526020016000815250905060016040518061014001604052808581526020018c81526020018b81526020018a8152602001848152602001838152602001604051806020016040528060008152508152602001604051806020016040528060008152508152602001600081526020016000815250908060018154018082558091505090600182039060005260206000209060110201600090919290919091506000820151816000015560208201518160010155604082015181600201556060820151816003019080519060200190610f16929190611e49565b506080820151816004016000820151816000019080519060200190610f3c929190611e49565b506020820151816001019080519060200190610f59929190611e49565b506040820151816002015560608201518160030155505060a0820151816008016000820151816000019080519060200190610f95929190611e49565b506020820151816001019080519060200190610fb2929190611e49565b506040820151816002015560608201518160030155505060c082015181600c019080519060200190610fe5929190611e49565b5060e082015181600d019080519060200190611002929190611e49565b5061010082015181600e015561012082015181600f015550505060038860405161102c9190612799565b90815260200160405180910390208390806001815401808255809150509060018203906000526020600020016000909192909190915055507fcea5cab7d8eb922cd9642f8ee4c316416903d0b9abdab7e24f3beae9548d8a2883896040516110959291906129fb565b60405180910390a150505050505050505050565b6000600260003373ffffffffffffffffffffffffffffffffffffffff1673ffffffffffffffffffffffffffffffffffffffff168152602001908152602001600020805490508210801561111b57507fffffffffffffffffffffffffffffffffffffffffffffffffffffffffffffffff82115b61115a576040517f08c379a000000000000000000000000000000000000000000000000000000000815260040161115190612900565b60405180910390fd5b600260003373ffffffffffffffffffffffffffffffffffffffff1673ffffffffffffffffffffffffffffffffffffffff16815260200190815260200160002082815481106111a457fe5b90600052602060002001549050919050565b60606000600183815481106111c757fe5b906000526020600020906011020160100160003373ffffffffffffffffffffffffffffffffffffffff1673ffffffffffffffffffffffffffffffffffffffff1681526020019081526020016000206000018054600181600116156101000203166002900480601f0160208091040260200160405190810160405280929190818152602001828054600181600116156101000203166002900480156112ac5780601f10611281576101008083540402835291602001916112ac565b820191906000526020600020905b81548152906001019060200180831161128f57829003601f168201915b50505050509150600183815481106112c057fe5b906000526020600020906011020160100160003373ffffffffffffffffffffffffffffffffffffffff1673ffffffffffffffffffffffffffffffffffffffff168152602001908152602001600020600101549050915091565b6000600260003373ffffffffffffffffffffffffffffffffffffffff1673ffffffffffffffffffffffffffffffffffffffff16815260200190815260200160002080549050905090565b60008060009054906101000a900473ffffffffffffffffffffffffffffffffffffffff1673ffffffffffffffffffffffffffffffffffffffff163373ffffffffffffffffffffffffffffffffffffffff16146113f4576040517f08c379a00000000000000000000000000000000000000000000000000000000081526004016113eb90612960565b60405180910390fd5b826001858154811061140257fe5b9060005260206000209060110201600c019080519060200190611426929190611ec9565b50816001858154811061143557fe5b9060005260206000209060110201600d019080519060200190611459929190611ec9565b5060008090506114936001868154811061146f57fe5b90600052602060002090601102016004016002015482611dd590919063ffffffff16565b90506114c9600186815481106114a557fe5b90600052602060002090601102016008016002015482611dd590919063ffffffff16565b905060018111156115e7576000611508600a600188815481106114e857fe5b9060005260206000209060110201600e0154611df190919063ffffffff16565b905061153b816001888154811061151b57fe5b9060005260206000209060110201600e0154611e0a90919063ffffffff16565b6001878154811061154857fe5b9060005260206000209060110201600e01819055506001868154811061156a57fe5b9060005260206000209060110201600e01546001878154811061158957fe5b9060005260206000209060110201600f01819055503373ffffffffffffffffffffffffffffffffffffffff166108fc829081150290604051600060405180830381858888f193505050501580156115e4573d6000803e3d6000fd5b50505b60019150509392505050565b60008060009054906101000a900473ffffffffffffffffffffffffffffffffffffffff1673ffffffffffffffffffffffffffffffffffffffff163373ffffffffffffffffffffffffffffffffffffffff1614611684576040517f08c379a000000000000000000000000000000000000000000000000000000000815260040161167b90612960565b60405180910390fd5b6001838154811061169157fe5b90600052602060002090601102016001015442106116e4576040517f08c379a00000000000000000000000000000000000000000000000000000000081526004016116db90612940565b60405180910390fd5b42600184815481106116f257fe5b9060005260206000209060110201600101819055507ff657034b3eda2207855cc595c110000a337106bad9df0ffc53ee571c9dad2df98242604051611738929190612850565b60405180910390a16001905092915050565b600080341161178e576040517f08c379a0000000000000000000000000000000000000000000000000000000008152600401611785906128e0565b60405180910390fd5b60405160200161179d906127c7565b60405160208183030381529060405280519060200120600184815481106117c057fe5b906000526020600020906011020160100160003373ffffffffffffffffffffffffffffffffffffffff1673ffffffffffffffffffffffffffffffffffffffff16815260200190815260200160002060000160405160200161182191906127b0565b604051602081830303815290604052805190602001201480156118a2575060006001848154811061184e57fe5b906000526020600020906011020160100160003373ffffffffffffffffffffffffffffffffffffffff1673ffffffffffffffffffffffffffffffffffffffff16815260200190815260200160002060010154145b6118e1576040517f08c379a00000000000000000000000000000000000000000000000000000000081526004016118d890612980565b60405180910390fd5b600180549050831080156118f6575060008310155b611935576040517f08c379a000000000000000000000000000000000000000000000000000000000815260040161192c90612880565b60405180910390fd5b6001838154811061194257fe5b906000526020600020906011020160040160000160405160200161196691906127b0565b604051602081830303815290604052805190602001208260405160200161198d9190612799565b604051602081830303815290604052805190602001201480611a1a5750600183815481106119b757fe5b90600052602060002090601102016008016000016040516020016119db91906127b0565b6040516020818303038152906040528051906020012082604051602001611a029190612799565b60405160208183030381529060405280519060200120145b611a59576040517f08c379a0000000000000000000000000000000000000000000000000000000008152600401611a50906129a0565b60405180910390fd5b60018381548110611a6657fe5b9060005260206000209060110201600101544210611ab9576040517f08c379a0000000000000000000000000000000000000000000000000000000008152600401611ab0906128c0565b60405180910390fd5b6000809050611ad13482611dd590919063ffffffff16565b9050611b048160018681548110611ae457fe5b9060005260206000209060110201600e0154611dd590919063ffffffff16565b60018581548110611b1157fe5b9060005260206000209060110201600e01819055508260018581548110611b3457fe5b906000526020600020906011020160100160003373ffffffffffffffffffffffffffffffffffffffff1673ffffffffffffffffffffffffffffffffffffffff1681526020019081526020016000206000019080519060200190611b98929190611ec9565b508060018581548110611ba757fe5b906000526020600020906011020160100160003373ffffffffffffffffffffffffffffffffffffffff1673ffffffffffffffffffffffffffffffffffffffff16815260200190815260200160002060010181905550600260003373ffffffffffffffffffffffffffffffffffffffff1673ffffffffffffffffffffffffffffffffffffffff16815260200190815260200160002084908060018154018082558091505090600182039060005260206000200160009091929091909150555060018481548110611c7257fe5b9060005260206000209060110201600401600001604051602001611c9691906127b0565b6040516020818303038152906040528051906020012083604051602001611cbd9190612799565b604051602081830303815290604052805190602001201415611d3757611d0d6001808681548110611cea57fe5b906000526020600020906011020160040160020154611dd590919063ffffffff16565b60018581548110611d1a57fe5b906000526020600020906011020160040160020181905550611d91565b611d6b6001808681548110611d4857fe5b906000526020600020906011020160080160020154611dd590919063ffffffff16565b60018581548110611d7857fe5b9060005260206000209060110201600801600201819055505b7f7ad3e142cb1f6b587ed6908473557b4fe2838e65fbb0a5a61f8dad06bd8d76523384604051611dc29291906127dc565b60405180910390a1600191505092915050565b600080828401905083811015611de757fe5b8091505092915050565b600080828481611dfd57fe5b0490508091505092915050565b600082821115611e1657fe5b818303905092915050565b6040518060800160405280606081526020016060815260200160008152602001600081525090565b828054600181600116156101000203166002900490600052602060002090601f016020900481019282601f10611e8a57805160ff1916838001178555611eb8565b82800160010185558215611eb8579182015b82811115611eb7578251825591602001919060010190611e9c565b5b509050611ec59190611f49565b5090565b828054600181600116156101000203166002900490600052602060002090601f016020900481019282601f10611f0a57805160ff1916838001178555611f38565b82800160010185558215611f38579182015b82811115611f37578251825591602001919060010190611f1c565b5b509050611f459190611f49565b5090565b611f6b91905b80821115611f67576000816000905550600101611f4f565b5090565b90565b60008083601f840112611f8057600080fd5b8235905067ffffffffffffffff811115611f9957600080fd5b602083019150836001820283011115611fb157600080fd5b9250929050565b600082601f830112611fc957600080fd5b8135611fdc611fd782612b34565b612b07565b91508082526020830160208301858383011115611ff857600080fd5b612003838284612c08565b50505092915050565b60008135905061201b81612c5b565b92915050565b6000806020838503121561203457600080fd5b600083013567ffffffffffffffff81111561204e57600080fd5b61205a85828601611f6e565b92509250509250929050565b60006020828403121561207857600080fd5b60006120868482850161200c565b91505092915050565b600080604083850312156120a257600080fd5b60006120b08582860161200c565b925050602083013567ffffffffffffffff8111156120cd57600080fd5b6120d985828601611fb8565b9150509250929050565b6000806000606084860312156120f857600080fd5b60006121068682870161200c565b935050602084013567ffffffffffffffff81111561212357600080fd5b61212f86828701611fb8565b925050604084013567ffffffffffffffff81111561214c57600080fd5b61215886828701611fb8565b9150509250925092565b600080600080600080600060e0888a03121561217d57600080fd5b600061218b8a828b0161200c565b975050602061219c8a828b0161200c565b965050604088013567ffffffffffffffff8111156121b957600080fd5b6121c58a828b01611fb8565b955050606088013567ffffffffffffffff8111156121e257600080fd5b6121ee8a828b01611fb8565b945050608088013567ffffffffffffffff81111561220b57600080fd5b6122178a828b01611fb8565b93505060a088013567ffffffffffffffff81111561223457600080fd5b6122408a828b01611fb8565b92505060c088013567ffffffffffffffff81111561225d57600080fd5b6122698a828b01611fb8565b91505092959891949750929550565b61228181612bd2565b82525050565b61229081612b9c565b82525050565b60006122a28385612b91565b93506122af838584612c08565b82840190509392505050565b60006122c682612b75565b6122d08185612b80565b93506122e0818560208601612c17565b6122e981612c4a565b840191505092915050565b60006122ff82612b75565b6123098185612b91565b9350612319818560208601612c17565b80840191505092915050565b6000815460018116600081146123425760018114612367576123ab565b607f60028304166123538187612b91565b955060ff19831686528086019350506123ab565b600282046123758187612b91565b955061238085612b60565b60005b828110156123a257815481890152600182019150602081019050612383565b82880195505050505b505092915050565b60006123c0601c83612b80565b91507f506c6561736520656e74657220612076616c69642047616d6549642e000000006000830152602082019050919050565b6000612400602783612b80565b91507f46696e616c2073636f7265732068617665206e6f74206265656e20656e74657260008301527f6564207965742e000000000000000000000000000000000000000000000000006020830152604082019050919050565b6000612466602483612b80565b91507f47616d652068617320737461727465642e2042657474696e6720697320636c6f60008301527f7365642e000000000000000000000000000000000000000000000000000000006020830152604082019050919050565b60006124cc602d83612b80565b91507f426574206d7573742062652067726561746572207468616e20302e20506c656160008301527f73652074727920616761696e2e000000000000000000000000000000000000006020830152604082019050919050565b6000612532601483612b80565b91507f496e646578206f7574206f6620626f756e64732e0000000000000000000000006000830152602082019050919050565b6000612572602683612b80565b91507f536f7272792c20746865207465616d20796f7520626574206f6e206469646e2760008301527f742077696e2e00000000000000000000000000000000000000000000000000006020830152604082019050919050565b60006125d8601c83612b80565b91507f546f6f206c61746520746f2063616e63656c207468652067616d652e000000006000830152602082019050919050565b6000612618602383612b80565b91507f4d757374206265206f776e657220746f2075736520746869732066756e63746960008301527f6f6e2e00000000000000000000000000000000000000000000000000000000006020830152604082019050919050565b600061267e601c83612b80565b91507f596f7527766520616c726561647920706c616365642061206265742e000000006000830152602082019050919050565b60006126be600083612b91565b9150600082019050919050565b60006126d8602483612b80565b91507f506c6561736520656e74657220612076616c6964205465616d20746f2062657460008301527f206f6e2e000000000000000000000000000000000000000000000000000000006020830152604082019050919050565b600061273e601d83612b80565b91507f5468657265206973206e6f7468696e6720746f2077697468647261772e0000006000830152602082019050919050565b61277a81612bc8565b82525050565b600061278d828486612296565b91508190509392505050565b60006127a582846122f4565b915081905092915050565b60006127bc8284612325565b915081905092915050565b60006127d2826126b1565b9150819050919050565b60006040820190506127f16000830185612278565b818103602083015261280381846122bb565b90509392505050565b60006040820190506128216000830185612278565b61282e6020830184612771565b9392505050565b600060208201905061284a6000830184612287565b92915050565b6000604082019050818103600083015261286a81856122bb565b90506128796020830184612771565b9392505050565b60006020820190508181036000830152612899816123b3565b9050919050565b600060208201905081810360008301526128b9816123f3565b9050919050565b600060208201905081810360008301526128d981612459565b9050919050565b600060208201905081810360008301526128f9816124bf565b9050919050565b6000602082019050818103600083015261291981612525565b9050919050565b6000602082019050818103600083015261293981612565565b9050919050565b60006020820190508181036000830152612959816125cb565b9050919050565b600060208201905081810360008301526129798161260b565b9050919050565b6000602082019050818103600083015261299981612671565b9050919050565b600060208201905081810360008301526129b9816126cb565b9050919050565b600060208201905081810360008301526129d981612731565b9050919050565b60006020820190506129f56000830184612771565b92915050565b6000604082019050612a106000830185612771565b8181036020830152612a2281846122bb565b90509392505050565b600061016082019050612a41600083018e612771565b612a4e602083018d612771565b8181036040830152612a60818c6122bb565b90508181036060830152612a74818b6122bb565b90508181036080830152612a88818a6122bb565b9050612a9760a0830189612771565b81810360c0830152612aa981886122bb565b905081810360e0830152612abd81876122bb565b9050612acd610100830186612771565b818103610120830152612ae081856122bb565b9050818103610140830152612af581846122bb565b90509c9b505050505050505050505050565b6000604051905081810181811067ffffffffffffffff82111715612b2a57600080fd5b8060405250919050565b600067ffffffffffffffff821115612b4b57600080fd5b601f19601f8301169050602081019050919050565b60008190508160005260206000209050919050565b600081519050919050565b600082825260208201905092915050565b600081905092915050565b60008115159050919050565b600073ffffffffffffffffffffffffffffffffffffffff82169050919050565b6000819050919050565b6000612bdd82612be4565b9050919050565b6000612bef82612bf6565b9050919050565b6000612c0182612ba8565b9050919050565b82818337600083830152505050565b60005b83811015612c35578082015181840152602081019050612c1a565b83811115612c44576000848401525b50505050565b6000601f19601f8301169050919050565b612c6481612bc8565b8114612c6f57600080fd5b5056fea365627a7a72315820a5527077de230df49068404f5935176285412291e831d38075b693d42910d6556c6578706572696d656e74616cf564736f6c63430005100040",
    "source": "pragma solidity >0.5.0 <0.6.0;\npragma experimental ABIEncoderV2;\nimport \"./safemath.sol\";\nimport \"./Game.sol\";\n\ncontract BallinChain is GameTemplate{\n    using SafeMath for uint256;\n    using SafeMath32 for uint32;\n    using SafeMath16 for uint16;\n\n    address payable internal contract_owner;\n    Game[] private games;\n    mapping (address => uint[]) userBettingHistory;\n    mapping (string => uint[]) dateToGames;\n\n    event NewGame(uint gameId, string date);\n    event BetEvent(address better, string team);\n    event WithdrawalEvent(address withdrawer, uint amount);\n    event CanceledGame(string reason, uint time);\n\n    function() external{\n\n    }\n\n    constructor () public{\n        contract_owner = msg.sender;\n    }\n\n    function _createGame(uint256 _gameStart, uint256 _gameEnd, string memory _date, string memory _homeTeamName, string memory _homeTeamRecord, string memory _awayTeamName, string memory _awayTeamRecord) public only_owner() {\n        uint256 gameId = games.length;\n        Team memory homeTeam = Team(_homeTeamName, _homeTeamRecord, 0, 0);\n        Team memory awayTeam = Team(_awayTeamName, _awayTeamRecord, 0, 0);\n        games.push(Game(gameId, _gameStart, _gameEnd, _date, homeTeam, awayTeam, \"\", \"\", 0, 0));\n        dateToGames[_date].push(gameId);\n        emit NewGame(gameId, _date);\n    }\n\n    function betOnGame(uint256 _gameId, string memory _betTeam) public payable returns (bool){\n        require(msg.value > 0, \"Bet must be greater than 0. Please try again.\");\n        require(keccak256(abi.encodePacked(games[_gameId].bets[msg.sender].betTeam)) == keccak256(abi.encodePacked(\"\")) && games[_gameId].bets[msg.sender].betAmount == 0, \"You've already placed a bet.\");\n        require(_gameId < games.length && _gameId >= 0, \"Please enter a valid GameId.\");\n        require(keccak256(abi.encodePacked(_betTeam)) == keccak256(abi.encodePacked(games[_gameId].homeTeam.teamName)) || keccak256(abi.encodePacked(_betTeam)) == keccak256(abi.encodePacked(games[_gameId].awayTeam.teamName)), \"Please enter a valid Team to bet on.\");\n        require(now < games[_gameId].game_start, \"Game has started. Betting is closed.\");\n        uint betAmount = 0;\n        betAmount = betAmount.add(msg.value);\n        games[_gameId].pool = games[_gameId].pool.add(betAmount);\n        games[_gameId].bets[msg.sender].betTeam = _betTeam;\n        games[_gameId].bets[msg.sender].betAmount = betAmount;\n        userBettingHistory[msg.sender].push(_gameId);\n        if(keccak256(abi.encodePacked(_betTeam)) == keccak256(abi.encodePacked(games[_gameId].homeTeam.teamName))){\n            games[_gameId].homeTeam.totalBetters = games[_gameId].homeTeam.totalBetters.add(1);\n        }\n        else{\n            games[_gameId].awayTeam.totalBetters = games[_gameId].awayTeam.totalBetters.add(1);\n        }\n        emit BetEvent(msg.sender, _betTeam);\n        return true;\n    }\n\n    function withdraw(uint _gameId) public returns (bool){\n        require(games[_gameId].bets[msg.sender].betAmount > 0, \"There is nothing to withdraw.\");\n        require(keccak256(abi.encodePacked(games[_gameId].winner)) != keccak256(abi.encodePacked(\"\")) && keccak256(abi.encodePacked(games[_gameId].score)) != keccak256(abi.encodePacked(\"\")), \"Final scores have not been entered yet.\");\n        require(keccak256(abi.encodePacked(games[_gameId].bets[msg.sender].betTeam)) == keccak256(abi.encodePacked(games[_gameId].winner)), \"Sorry, the team you bet on didn't win.\");\n        uint amount = games[_gameId].bets[msg.sender].betAmount;\n        games[_gameId].bets[msg.sender].betAmount = 0;\n        //need to figure out how to split up the profit according to % of bid that made up that team amount\n        msg.sender.transfer(amount);\n        emit WithdrawalEvent(msg.sender, amount);\n        return true;\n    }\n\n    function updateGameFinal(uint _gameId, string memory _winner, string memory _score) public only_owner returns (bool){\n        games[_gameId].winner = _winner;\n        games[_gameId].score = _score;\n        uint256 totalBets = 0;\n        totalBets = totalBets.add(games[_gameId].homeTeam.totalBetters);\n        totalBets = totalBets.add(games[_gameId].awayTeam.totalBetters);\n        if(totalBets > 1){\n            uint cut = games[_gameId].pool.div(10);\n            games[_gameId].pool = games[_gameId].pool.sub(cut);\n            games[_gameId].finalPool = games[_gameId].pool;\n            msg.sender.transfer(cut);\n        }\n        return true;\n    }\n\n    function cancelGame(uint _gameId, string memory _reason) public only_owner returns (bool){\n        require(now < games[_gameId].game_start, \"Too late to cancel the game.\");\n        games[_gameId].game_start = now;\n        emit CanceledGame(_reason, now);\n        // add functionality to return payments to betters\n        return true;\n    }\n\n    function gameBalance(uint _gameId) external view returns(uint){\n        return games[_gameId].pool;\n    }\n\n    function getGamedData(uint _gameId) external view returns(uint gameStart, uint gameEnd, string memory date, string memory homeTeamName, string memory homeTeamRecord, uint homeTeamBetters, string memory awayTeamName, string memory awayTeamRecord, uint awayTeamBetters, string memory winner, string memory score){\n        gameStart = games[_gameId].game_start;\n        gameEnd = games[_gameId].game_end;\n        date = games[_gameId].date;\n        homeTeamName = games[_gameId].homeTeam.teamName;\n        homeTeamRecord = games[_gameId].homeTeam.record;\n        homeTeamBetters = games[_gameId].homeTeam.totalBetters;\n        awayTeamName = games[_gameId].awayTeam.teamName;\n        awayTeamRecord = games[_gameId].awayTeam.record;\n        awayTeamBetters = games[_gameId].awayTeam.totalBetters;\n        winner = games[_gameId].winner;\n        score = games[_gameId].score;\n    }\n\n    function totalGamesToday(string calldata _date) external view returns(uint){\n        return dateToGames[_date].length;\n    }\n\n    function totalUserBets() external view returns(uint){\n        return userBettingHistory[msg.sender].length;\n    }\n\n    function getGameBetData(uint _gameId) external view returns(string memory bettingTeam, uint betAmount){\n        bettingTeam = games[_gameId].bets[msg.sender].betTeam;\n        betAmount = games[_gameId].bets[msg.sender].betAmount;\n\n    }\n\n    function getGameFromHistory(uint _index) external view returns(uint){\n        require(_index < userBettingHistory[msg.sender].length && _index > uint(-1), \"Index out of bounds.\");\n        return userBettingHistory[msg.sender][_index];\n    }\n\n    modifier only_owner(){\n        require(msg.sender == contract_owner, \"Must be owner to use this function.\");\n        _;\n    }\n}\n",
    "sourcePath": "/home/tanner/CS483/BallinChainFinal/contracts/BallinChain.sol",
    "compiler": {
        "name": "solc",
        "version": "0.5.16+commit.9c3226ce.Emscripten.clang"
    },
    "schemaVersion": "3.1.0",
    "updatedAt": "2020-04-22T00:21:39.396Z",
    "networkType": "ethereum",
    "devdoc": {
        "methods": {}
    },
    "userdoc": {
        "methods": {}
    }
}