{
  "contractName": "BallinChain",
  "abi": [
    {
      "inputs": [],
      "payable": false,
      "stateMutability": "nonpayable",
      "type": "constructor"
    },
    {
      "anonymous": false,
      "inputs": [
        {
          "indexed": false,
          "internalType": "address",
          "name": "better",
          "type": "address"
        },
        {
          "indexed": false,
          "internalType": "string",
          "name": "team",
          "type": "string"
        }
      ],
      "name": "BetEvent",
      "type": "event"
    },
    {
      "anonymous": false,
      "inputs": [
        {
          "indexed": false,
          "internalType": "string",
          "name": "reason",
          "type": "string"
        },
        {
          "indexed": false,
          "internalType": "uint256",
          "name": "time",
          "type": "uint256"
        }
      ],
      "name": "CanceledGame",
      "type": "event"
    },
    {
      "anonymous": false,
      "inputs": [
        {
          "indexed": false,
          "internalType": "uint256",
          "name": "gameId",
          "type": "uint256"
        },
        {
          "indexed": false,
          "internalType": "string",
          "name": "date",
          "type": "string"
        }
      ],
      "name": "NewGame",
      "type": "event"
    },
    {
      "anonymous": false,
      "inputs": [
        {
          "indexed": false,
          "internalType": "address",
          "name": "withdrawer",
          "type": "address"
        },
        {
          "indexed": false,
          "internalType": "uint256",
          "name": "amount",
          "type": "uint256"
        }
      ],
      "name": "WithdrawalEvent",
      "type": "event"
    },
    {
      "payable": false,
      "stateMutability": "nonpayable",
      "type": "fallback"
    },
    {
      "constant": false,
      "inputs": [
        {
          "internalType": "uint256",
          "name": "_gameStart",
          "type": "uint256"
        },
        {
          "internalType": "uint256",
          "name": "_gameEnd",
          "type": "uint256"
        },
        {
          "internalType": "string",
          "name": "_date",
          "type": "string"
        },
        {
          "internalType": "string",
          "name": "_homeTeamName",
          "type": "string"
        },
        {
          "internalType": "string",
          "name": "_homeTeamRecord",
          "type": "string"
        },
        {
          "internalType": "string",
          "name": "_awayTeamName",
          "type": "string"
        },
        {
          "internalType": "string",
          "name": "_awayTeamRecord",
          "type": "string"
        }
      ],
      "name": "createGame",
      "outputs": [],
      "payable": false,
      "stateMutability": "nonpayable",
      "type": "function"
    },
    {
      "constant": false,
      "inputs": [
        {
          "internalType": "uint256",
          "name": "_gameId",
          "type": "uint256"
        },
        {
          "internalType": "string",
          "name": "_betTeam",
          "type": "string"
        }
      ],
      "name": "betOnGame",
      "outputs": [
        {
          "internalType": "bool",
          "name": "",
          "type": "bool"
        }
      ],
      "payable": true,
      "stateMutability": "payable",
      "type": "function"
    },
    {
      "constant": false,
      "inputs": [
        {
          "internalType": "uint256",
          "name": "_gameId",
          "type": "uint256"
        }
      ],
      "name": "withdraw",
      "outputs": [
        {
          "internalType": "bool",
          "name": "",
          "type": "bool"
        }
      ],
      "payable": false,
      "stateMutability": "nonpayable",
      "type": "function"
    },
    {
      "constant": false,
      "inputs": [
        {
          "internalType": "uint256",
          "name": "_gameId",
          "type": "uint256"
        }
      ],
      "name": "ownerWithdraw",
      "outputs": [
        {
          "internalType": "bool",
          "name": "",
          "type": "bool"
        }
      ],
      "payable": false,
      "stateMutability": "nonpayable",
      "type": "function"
    },
    {
      "constant": false,
      "inputs": [
        {
          "internalType": "uint256",
          "name": "_gameId",
          "type": "uint256"
        },
        {
          "internalType": "string",
          "name": "_winner",
          "type": "string"
        },
        {
          "internalType": "string",
          "name": "_score",
          "type": "string"
        }
      ],
      "name": "updateGameFinal",
      "outputs": [
        {
          "internalType": "bool",
          "name": "",
          "type": "bool"
        }
      ],
      "payable": false,
      "stateMutability": "nonpayable",
      "type": "function"
    },
    {
      "constant": false,
      "inputs": [
        {
          "internalType": "uint256",
          "name": "_gameId",
          "type": "uint256"
        },
        {
          "internalType": "string",
          "name": "_reason",
          "type": "string"
        }
      ],
      "name": "cancelGame",
      "outputs": [
        {
          "internalType": "bool",
          "name": "",
          "type": "bool"
        }
      ],
      "payable": false,
      "stateMutability": "nonpayable",
      "type": "function"
    },
    {
      "constant": true,
      "inputs": [
        {
          "internalType": "uint256",
          "name": "_gameId",
          "type": "uint256"
        }
      ],
      "name": "gameBalance",
      "outputs": [
        {
          "internalType": "uint256",
          "name": "",
          "type": "uint256"
        }
      ],
      "payable": false,
      "stateMutability": "view",
      "type": "function"
    },
    {
      "constant": true,
      "inputs": [
        {
          "internalType": "uint256",
          "name": "_gameId",
          "type": "uint256"
        }
      ],
      "name": "getGamedData",
      "outputs": [
        {
          "internalType": "uint256",
          "name": "gameStart",
          "type": "uint256"
        },
        {
          "internalType": "uint256",
          "name": "gameEnd",
          "type": "uint256"
        },
        {
          "internalType": "string",
          "name": "date",
          "type": "string"
        },
        {
          "internalType": "string",
          "name": "homeTeamName",
          "type": "string"
        },
        {
          "internalType": "string",
          "name": "homeTeamRecord",
          "type": "string"
        },
        {
          "internalType": "uint256",
          "name": "homeTeamBetters",
          "type": "uint256"
        },
        {
          "internalType": "string",
          "name": "awayTeamName",
          "type": "string"
        },
        {
          "internalType": "string",
          "name": "awayTeamRecord",
          "type": "string"
        },
        {
          "internalType": "uint256",
          "name": "awayTeamBetters",
          "type": "uint256"
        },
        {
          "internalType": "string",
          "name": "winner",
          "type": "string"
        },
        {
          "internalType": "string",
          "name": "score",
          "type": "string"
        }
      ],
      "payable": false,
      "stateMutability": "view",
      "type": "function"
    },
    {
      "constant": true,
      "inputs": [
        {
          "internalType": "string",
          "name": "_date",
          "type": "string"
        }
      ],
      "name": "totalGamesToday",
      "outputs": [
        {
          "internalType": "uint256",
          "name": "",
          "type": "uint256"
        }
      ],
      "payable": false,
      "stateMutability": "view",
      "type": "function"
    },
    {
      "constant": true,
      "inputs": [
        {
          "internalType": "string",
          "name": "_date",
          "type": "string"
        },
        {
          "internalType": "uint256",
          "name": "_index",
          "type": "uint256"
        }
      ],
      "name": "getGameToday",
      "outputs": [
        {
          "internalType": "uint256",
          "name": "",
          "type": "uint256"
        }
      ],
      "payable": false,
      "stateMutability": "view",
      "type": "function"
    },
    {
      "constant": true,
      "inputs": [],
      "name": "totalUserBets",
      "outputs": [
        {
          "internalType": "uint256",
          "name": "",
          "type": "uint256"
        }
      ],
      "payable": false,
      "stateMutability": "view",
      "type": "function"
    },
    {
      "constant": true,
      "inputs": [
        {
          "internalType": "uint256",
          "name": "_gameId",
          "type": "uint256"
        }
      ],
      "name": "getGameBetData",
      "outputs": [
        {
          "internalType": "string",
          "name": "bettingTeam",
          "type": "string"
        },
        {
          "internalType": "uint256",
          "name": "betAmount",
          "type": "uint256"
        }
      ],
      "payable": false,
      "stateMutability": "view",
      "type": "function"
    },
    {
      "constant": true,
      "inputs": [
        {
          "internalType": "uint256",
          "name": "_index",
          "type": "uint256"
        }
      ],
      "name": "getGameFromHistory",
      "outputs": [
        {
          "internalType": "uint256",
          "name": "",
          "type": "uint256"
        }
      ],
      "payable": false,
      "stateMutability": "view",
      "type": "function"
    }
  ],
  "bytecode": "0x608060405234801561001057600080fd5b50336000806101000a81548173ffffffffffffffffffffffffffffffffffffffff021916908373ffffffffffffffffffffffffffffffffffffffff160217905550613688806100606000396000f3fe6080604052600436106100c25760003560e01c8063916fe6081161007f578063dffd6c4711610059578063dffd6c47146102ef578063e10161191461032c578063f4d6a01e14610369578063f8838c8b14610399576100c2565b8063916fe6081461024957806395051bb214610286578063d8d0ac0e146102c4576100c2565b806311d6be7a146100d1578063190345781461010e57806319be5ad0146101555780632e1a7d4d1461019257806333f707d1146101cf578063647dfd711461020c575b3480156100ce57600080fd5b50005b3480156100dd57600080fd5b506100f860048036036100f39190810190612981565b6103c2565b60405161010591906133b3565b60405180910390f35b34801561011a57600080fd5b50610135600480360361013091908101906129d9565b61045b565b60405161014c9b9a999897969594939291906133fe565b60405180910390f35b34801561016157600080fd5b5061017c600480360361017791908101906129d9565b610a21565b60405161018991906133b3565b60405180910390f35b34801561019e57600080fd5b506101b960048036036101b491908101906129d9565b610a49565b6040516101c691906131e8565b60405180910390f35b3480156101db57600080fd5b506101f660048036036101f191908101906129d9565b61123a565b60405161020391906131e8565b60405180910390f35b34801561021857600080fd5b50610233600480360361022e919081019061293c565b611704565b60405161024091906133b3565b60405180910390f35b34801561025557600080fd5b50610270600480360361026b91908101906129d9565b611732565b60405161027d91906133b3565b60405180910390f35b34801561029257600080fd5b506102ad60048036036102a891908101906129d9565b6117e8565b6040516102bb929190613203565b60405180910390f35b3480156102d057600080fd5b506102d961194b565b6040516102e691906133b3565b60405180910390f35b3480156102fb57600080fd5b5061031660048036036103119190810190612a56565b611995565b60405161032391906131e8565b60405180910390f35b34801561033857600080fd5b50610353600480360361034e9190810190612a02565b611ad8565b60405161036091906131e8565b60405180910390f35b610383600480360361037e9190810190612a02565b611c58565b60405161039091906131e8565b60405180910390f35b3480156103a557600080fd5b506103c060048036036103bb9190810190612ad5565b61239d565b005b60006060600385856040516103d8929190613133565b908152602001604051809103902080548060200260200160405190810160405280929190818152602001828054801561043057602002820191906000526020600020905b81548152602001906001019080831161041c575b50505050509050600081848151811061044557fe5b6020026020010151905080925050509392505050565b60008060608060606000606080600060608060018c8154811061047a57fe5b9060005260206000209060110201600101549a5060018c8154811061049b57fe5b906000526020600020906011020160020154995060018c815481106104bc57fe5b90600052602060002090601102016003018054600181600116156101000203166002900480601f0160208091040260200160405190810160405280929190818152602001828054600181600116156101000203166002900480156105615780601f1061053657610100808354040283529160200191610561565b820191906000526020600020905b81548152906001019060200180831161054457829003601f168201915b5050505050985060018c8154811061057557fe5b90600052602060002090601102016004016000018054600181600116156101000203166002900480601f01602080910402602001604051908101604052809291908181526020018280546001816001161561010002031660029004801561061d5780601f106105f25761010080835404028352916020019161061d565b820191906000526020600020905b81548152906001019060200180831161060057829003601f168201915b5050505050975060018c8154811061063157fe5b90600052602060002090601102016004016001018054600181600116156101000203166002900480601f0160208091040260200160405190810160405280929190818152602001828054600181600116156101000203166002900480156106d95780601f106106ae576101008083540402835291602001916106d9565b820191906000526020600020905b8154815290600101906020018083116106bc57829003601f168201915b5050505050965060018c815481106106ed57fe5b906000526020600020906011020160040160020154955060018c8154811061071157fe5b90600052602060002090601102016008016000018054600181600116156101000203166002900480601f0160208091040260200160405190810160405280929190818152602001828054600181600116156101000203166002900480156107b95780601f1061078e576101008083540402835291602001916107b9565b820191906000526020600020905b81548152906001019060200180831161079c57829003601f168201915b5050505050945060018c815481106107cd57fe5b90600052602060002090601102016008016001018054600181600116156101000203166002900480601f0160208091040260200160405190810160405280929190818152602001828054600181600116156101000203166002900480156108755780601f1061084a57610100808354040283529160200191610875565b820191906000526020600020905b81548152906001019060200180831161085857829003601f168201915b5050505050935060018c8154811061088957fe5b906000526020600020906011020160080160020154925060018c815481106108ad57fe5b9060005260206000209060110201600c018054600181600116156101000203166002900480601f0160208091040260200160405190810160405280929190818152602001828054600181600116156101000203166002900480156109525780601f1061092757610100808354040283529160200191610952565b820191906000526020600020905b81548152906001019060200180831161093557829003601f168201915b5050505050915060018c8154811061096657fe5b9060005260206000209060110201600d018054600181600116156101000203166002900480601f016020809104026020016040519081016040528092919081815260200182805460018160011615610100020316600290048015610a0b5780601f106109e057610100808354040283529160200191610a0b565b820191906000526020600020905b8154815290600101906020018083116109ee57829003601f168201915b5050505050905091939597999b90929496989a50565b600060018281548110610a3057fe5b9060005260206000209060110201600e01549050919050565b60008060009054906101000a900473ffffffffffffffffffffffffffffffffffffffff1673ffffffffffffffffffffffffffffffffffffffff163373ffffffffffffffffffffffffffffffffffffffff161415610adb576040517f08c379a0000000000000000000000000000000000000000000000000000000008152600401610ad290613333565b60405180910390fd5b600060018381548110610aea57fe5b906000526020600020906011020160100160003373ffffffffffffffffffffffffffffffffffffffff1673ffffffffffffffffffffffffffffffffffffffff1681526020019081526020016000206001015411610b7c576040517f08c379a0000000000000000000000000000000000000000000000000000000008152600401610b7390613393565b60405180910390fd5b60018281548110610b8957fe5b9060005260206000209060110201600201544211610bdc576040517f08c379a0000000000000000000000000000000000000000000000000000000008152600401610bd390613293565b60405180910390fd5b604051602001610beb9061317a565b6040516020818303038152906040528051906020012060018381548110610c0e57fe5b9060005260206000209060110201600c01604051602001610c2f9190613163565b6040516020818303038152906040528051906020012014158015610cba5750604051602001610c5d9061317a565b6040516020818303038152906040528051906020012060018381548110610c8057fe5b9060005260206000209060110201600d01604051602001610ca19190613163565b6040516020818303038152906040528051906020012014155b610cf9576040517f08c379a0000000000000000000000000000000000000000000000000000000008152600401610cf090613253565b60405180910390fd5b60018281548110610d0657fe5b9060005260206000209060110201600c01604051602001610d279190613163565b6040516020818303038152906040528051906020012060018381548110610d4a57fe5b906000526020600020906011020160100160003373ffffffffffffffffffffffffffffffffffffffff1673ffffffffffffffffffffffffffffffffffffffff168152602001908152602001600020600001604051602001610dab9190613163565b6040516020818303038152906040528051906020012014610e01576040517f08c379a0000000000000000000000000000000000000000000000000000000008152600401610df8906132d3565b60405180910390fd5b600060018381548110610e1057fe5b906000526020600020906011020160100160003373ffffffffffffffffffffffffffffffffffffffff1673ffffffffffffffffffffffffffffffffffffffff168152602001908152602001600020600101549050600060018481548110610e7357fe5b906000526020600020906011020160100160003373ffffffffffffffffffffffffffffffffffffffff1673ffffffffffffffffffffffffffffffffffffffff16815260200190815260200160002060010181905550600060018481548110610ed757fe5b906000526020600020906011020160040160020154118015610f1a5750600060018481548110610f0357fe5b906000526020600020906011020160080160020154115b1561115d57600080905060018481548110610f3157fe5b9060005260206000209060110201600c01604051602001610f529190613163565b6040516020818303038152906040528051906020012060018581548110610f7557fe5b9060005260206000209060110201600401600001604051602001610f999190613163565b60405160208183030381529060405280519060200120141561108a57610fe960018581548110610fc557fe5b906000526020600020906011020160040160020154826126f090919063ffffffff16565b9050600060018581548110610ffa57fe5b9060005260206000209060110201600f015490506110426001868154811061101e57fe5b9060005260206000209060110201600401600301548261270c90919063ffffffff16565b90506110586001836126f090919063ffffffff16565b915061106d828261272390919063ffffffff16565b905061108281846126f090919063ffffffff16565b92505061115b565b6110be6001858154811061109a57fe5b906000526020600020906011020160080160020154826126f090919063ffffffff16565b90506000600185815481106110cf57fe5b9060005260206000209060110201600f01549050611117600186815481106110f357fe5b9060005260206000209060110201600801600301548261270c90919063ffffffff16565b905061112d6001836126f090919063ffffffff16565b9150611142828261272390919063ffffffff16565b905061115781846126f090919063ffffffff16565b9250505b505b61118e816001858154811061116e57fe5b9060005260206000209060110201600e015461270c90919063ffffffff16565b6001848154811061119b57fe5b9060005260206000209060110201600e01819055503373ffffffffffffffffffffffffffffffffffffffff166108fc829081150290604051600060405180830381858888f193505050501580156111f6573d6000803e3d6000fd5b507f2f174ca282119315c59efaf21147aef438581dabdeb498198ae28964373dd8bc33826040516112289291906131bf565b60405180910390a16001915050919050565b60008060009054906101000a900473ffffffffffffffffffffffffffffffffffffffff1673ffffffffffffffffffffffffffffffffffffffff163373ffffffffffffffffffffffffffffffffffffffff16146112cb576040517f08c379a00000000000000000000000000000000000000000000000000000000081526004016112c290613313565b60405180910390fd5b6000600183815481106112da57fe5b906000526020600020906011020160100160003373ffffffffffffffffffffffffffffffffffffffff1673ffffffffffffffffffffffffffffffffffffffff16815260200190815260200160002060010154905060006001848154811061133d57fe5b906000526020600020906011020160100160003373ffffffffffffffffffffffffffffffffffffffff1673ffffffffffffffffffffffffffffffffffffffff168152602001908152602001600020600101819055506000600184815481106113a157fe5b9060005260206000209060110201600401600201541180156113e457506000600184815481106113cd57fe5b906000526020600020906011020160080160020154115b15611627576000809050600184815481106113fb57fe5b9060005260206000209060110201600c0160405160200161141c9190613163565b604051602081830303815290604052805190602001206001858154811061143f57fe5b90600052602060002090601102016004016000016040516020016114639190613163565b604051602081830303815290604052805190602001201415611554576114b36001858154811061148f57fe5b906000526020600020906011020160040160020154826126f090919063ffffffff16565b90506000600185815481106114c457fe5b9060005260206000209060110201600f0154905061150c600186815481106114e857fe5b9060005260206000209060110201600401600301548261270c90919063ffffffff16565b90506115226001836126f090919063ffffffff16565b9150611537828261272390919063ffffffff16565b905061154c81846126f090919063ffffffff16565b925050611625565b6115886001858154811061156457fe5b906000526020600020906011020160080160020154826126f090919063ffffffff16565b905060006001858154811061159957fe5b9060005260206000209060110201600f015490506115e1600186815481106115bd57fe5b9060005260206000209060110201600801600301548261270c90919063ffffffff16565b90506115f76001836126f090919063ffffffff16565b915061160c828261272390919063ffffffff16565b905061162181846126f090919063ffffffff16565b9250505b505b611658816001858154811061163857fe5b9060005260206000209060110201600e015461270c90919063ffffffff16565b6001848154811061166557fe5b9060005260206000209060110201600e01819055503373ffffffffffffffffffffffffffffffffffffffff166108fc829081150290604051600060405180830381858888f193505050501580156116c0573d6000803e3d6000fd5b507f2f174ca282119315c59efaf21147aef438581dabdeb498198ae28964373dd8bc33826040516116f29291906131bf565b60405180910390a16001915050919050565b600060038383604051611718929190613133565b908152602001604051809103902080549050905092915050565b60006060600260003373ffffffffffffffffffffffffffffffffffffffff1673ffffffffffffffffffffffffffffffffffffffff1681526020019081526020016000208054806020026020016040519081016040528092919081815260200182805480156117bf57602002820191906000526020600020905b8154815260200190600101908083116117ab575b5050505050905060008184815181106117d457fe5b602002602001015190508092505050919050565b60606000600183815481106117f957fe5b906000526020600020906011020160100160003373ffffffffffffffffffffffffffffffffffffffff1673ffffffffffffffffffffffffffffffffffffffff1681526020019081526020016000206000018054600181600116156101000203166002900480601f0160208091040260200160405190810160405280929190818152602001828054600181600116156101000203166002900480156118de5780601f106118b3576101008083540402835291602001916118de565b820191906000526020600020905b8154815290600101906020018083116118c157829003601f168201915b50505050509150600183815481106118f257fe5b906000526020600020906011020160100160003373ffffffffffffffffffffffffffffffffffffffff1673ffffffffffffffffffffffffffffffffffffffff168152602001908152602001600020600101549050915091565b6000600260003373ffffffffffffffffffffffffffffffffffffffff1673ffffffffffffffffffffffffffffffffffffffff16815260200190815260200160002080549050905090565b60008060009054906101000a900473ffffffffffffffffffffffffffffffffffffffff1673ffffffffffffffffffffffffffffffffffffffff163373ffffffffffffffffffffffffffffffffffffffff1614611a26576040517f08c379a0000000000000000000000000000000000000000000000000000000008152600401611a1d90613313565b60405180910390fd5b8260018581548110611a3457fe5b9060005260206000209060110201600c019080519060200190611a5892919061273c565b508160018581548110611a6757fe5b9060005260206000209060110201600d019080519060200190611a8b92919061273c565b5060018481548110611a9957fe5b9060005260206000209060110201600e015460018581548110611ab857fe5b9060005260206000209060110201600f0181905550600190509392505050565b60008060009054906101000a900473ffffffffffffffffffffffffffffffffffffffff1673ffffffffffffffffffffffffffffffffffffffff163373ffffffffffffffffffffffffffffffffffffffff1614611b69576040517f08c379a0000000000000000000000000000000000000000000000000000000008152600401611b6090613313565b60405180910390fd5b60018381548110611b7657fe5b9060005260206000209060110201600101544210611bc9576040517f08c379a0000000000000000000000000000000000000000000000000000000008152600401611bc0906132f3565b60405180910390fd5b6002420360018481548110611bda57fe5b9060005260206000209060110201600101819055506001420360018481548110611c0057fe5b9060005260206000209060110201600201819055507ff657034b3eda2207855cc595c110000a337106bad9df0ffc53ee571c9dad2df98242604051611c46929190613203565b60405180910390a16001905092915050565b6000670de0b6b3a76400003414611ca4576040517f08c379a0000000000000000000000000000000000000000000000000000000008152600401611c9b90613273565b60405180910390fd5b604051602001611cb39061317a565b6040516020818303038152906040528051906020012060018481548110611cd657fe5b906000526020600020906011020160100160003373ffffffffffffffffffffffffffffffffffffffff1673ffffffffffffffffffffffffffffffffffffffff168152602001908152602001600020600001604051602001611d379190613163565b60405160208183030381529060405280519060200120148015611db85750600060018481548110611d6457fe5b906000526020600020906011020160100160003373ffffffffffffffffffffffffffffffffffffffff1673ffffffffffffffffffffffffffffffffffffffff16815260200190815260200160002060010154145b611df7576040517f08c379a0000000000000000000000000000000000000000000000000000000008152600401611dee90613353565b60405180910390fd5b60018054905083108015611e0c575060008310155b611e4b576040517f08c379a0000000000000000000000000000000000000000000000000000000008152600401611e4290613233565b60405180910390fd5b60018381548110611e5857fe5b9060005260206000209060110201600401600001604051602001611e7c9190613163565b6040516020818303038152906040528051906020012082604051602001611ea3919061314c565b604051602081830303815290604052805190602001201480611f30575060018381548110611ecd57fe5b9060005260206000209060110201600801600001604051602001611ef19190613163565b6040516020818303038152906040528051906020012082604051602001611f18919061314c565b60405160208183030381529060405280519060200120145b611f6f576040517f08c379a0000000000000000000000000000000000000000000000000000000008152600401611f6690613373565b60405180910390fd5b60018381548110611f7c57fe5b9060005260206000209060110201600101544210611fcf576040517f08c379a0000000000000000000000000000000000000000000000000000000008152600401611fc6906132b3565b60405180910390fd5b6000809050611fe734826126f090919063ffffffff16565b905061201a8160018681548110611ffa57fe5b9060005260206000209060110201600e01546126f090919063ffffffff16565b6001858154811061202757fe5b9060005260206000209060110201600e0181905550826001858154811061204a57fe5b906000526020600020906011020160100160003373ffffffffffffffffffffffffffffffffffffffff1673ffffffffffffffffffffffffffffffffffffffff16815260200190815260200160002060000190805190602001906120ae92919061273c565b5080600185815481106120bd57fe5b906000526020600020906011020160100160003373ffffffffffffffffffffffffffffffffffffffff1673ffffffffffffffffffffffffffffffffffffffff16815260200190815260200160002060010181905550600260003373ffffffffffffffffffffffffffffffffffffffff1673ffffffffffffffffffffffffffffffffffffffff1681526020019081526020016000208490806001815401808255809150509060018203906000526020600020016000909192909190915055506001848154811061218857fe5b90600052602060002090601102016004016000016040516020016121ac9190613163565b60405160208183030381529060405280519060200120836040516020016121d3919061314c565b6040516020818303038152906040528051906020012014156122a657612223600180868154811061220057fe5b9060005260206000209060110201600401600201546126f090919063ffffffff16565b6001858154811061223057fe5b90600052602060002090601102016004016002018190555061227c816001868154811061225957fe5b9060005260206000209060110201600401600301546126f090919063ffffffff16565b6001858154811061228957fe5b906000526020600020906011020160040160030181905550612359565b6122da60018086815481106122b757fe5b9060005260206000209060110201600801600201546126f090919063ffffffff16565b600185815481106122e757fe5b906000526020600020906011020160080160020181905550612333816001868154811061231057fe5b9060005260206000209060110201600801600301546126f090919063ffffffff16565b6001858154811061234057fe5b9060005260206000209060110201600801600301819055505b7f7ad3e142cb1f6b587ed6908473557b4fe2838e65fbb0a5a61f8dad06bd8d7652338460405161238a92919061318f565b60405180910390a1600191505092915050565b6000809054906101000a900473ffffffffffffffffffffffffffffffffffffffff1673ffffffffffffffffffffffffffffffffffffffff163373ffffffffffffffffffffffffffffffffffffffff161461242c576040517f08c379a000000000000000000000000000000000000000000000000000000000815260040161242390613313565b60405180910390fd5b6000600180549050905061243e6127bc565b6040518060800160405280878152602001868152602001600081526020016000815250905061246b6127bc565b6040518060800160405280868152602001858152602001600081526020016000815250905060016040518061014001604052808581526020018c81526020018b81526020018a815260200184815260200183815260200160405180602001604052806000815250815260200160405180602001604052806000815250815260200160008152602001600081525090806001815401808255809150509060018203906000526020600020906011020160009091929091909150600082015181600001556020820151816001015560408201518160020155606082015181600301908051906020019061255d9291906127e4565b5060808201518160040160008201518160000190805190602001906125839291906127e4565b5060208201518160010190805190602001906125a09291906127e4565b506040820151816002015560608201518160030155505060a08201518160080160008201518160000190805190602001906125dc9291906127e4565b5060208201518160010190805190602001906125f99291906127e4565b506040820151816002015560608201518160030155505060c082015181600c01908051906020019061262c9291906127e4565b5060e082015181600d0190805190602001906126499291906127e4565b5061010082015181600e015561012082015181600f0155505050600388604051612673919061314c565b90815260200160405180910390208390806001815401808255809150509060018203906000526020600020016000909192909190915055507fcea5cab7d8eb922cd9642f8ee4c316416903d0b9abdab7e24f3beae9548d8a2883896040516126dc9291906133ce565b60405180910390a150505050505050505050565b60008082840190508381101561270257fe5b8091505092915050565b60008282111561271857fe5b818303905092915050565b60008082848161272f57fe5b0490508091505092915050565b828054600181600116156101000203166002900490600052602060002090601f016020900481019282601f1061277d57805160ff19168380011785556127ab565b828001600101855582156127ab579182015b828111156127aa57825182559160200191906001019061278f565b5b5090506127b89190612864565b5090565b6040518060800160405280606081526020016060815260200160008152602001600081525090565b828054600181600116156101000203166002900490600052602060002090601f016020900481019282601f1061282557805160ff1916838001178555612853565b82800160010185558215612853579182015b82811115612852578251825591602001919060010190612837565b5b5090506128609190612864565b5090565b61288691905b8082111561288257600081600090555060010161286a565b5090565b90565b60008083601f84011261289b57600080fd5b8235905067ffffffffffffffff8111156128b457600080fd5b6020830191508360018202830111156128cc57600080fd5b9250929050565b600082601f8301126128e457600080fd5b81356128f76128f282613507565b6134da565b9150808252602083016020830185838301111561291357600080fd5b61291e8382846135db565b50505092915050565b6000813590506129368161362e565b92915050565b6000806020838503121561294f57600080fd5b600083013567ffffffffffffffff81111561296957600080fd5b61297585828601612889565b92509250509250929050565b60008060006040848603121561299657600080fd5b600084013567ffffffffffffffff8111156129b057600080fd5b6129bc86828701612889565b935093505060206129cf86828701612927565b9150509250925092565b6000602082840312156129eb57600080fd5b60006129f984828501612927565b91505092915050565b60008060408385031215612a1557600080fd5b6000612a2385828601612927565b925050602083013567ffffffffffffffff811115612a4057600080fd5b612a4c858286016128d3565b9150509250929050565b600080600060608486031215612a6b57600080fd5b6000612a7986828701612927565b935050602084013567ffffffffffffffff811115612a9657600080fd5b612aa2868287016128d3565b925050604084013567ffffffffffffffff811115612abf57600080fd5b612acb868287016128d3565b9150509250925092565b600080600080600080600060e0888a031215612af057600080fd5b6000612afe8a828b01612927565b9750506020612b0f8a828b01612927565b965050604088013567ffffffffffffffff811115612b2c57600080fd5b612b388a828b016128d3565b955050606088013567ffffffffffffffff811115612b5557600080fd5b612b618a828b016128d3565b945050608088013567ffffffffffffffff811115612b7e57600080fd5b612b8a8a828b016128d3565b93505060a088013567ffffffffffffffff811115612ba757600080fd5b612bb38a828b016128d3565b92505060c088013567ffffffffffffffff811115612bd057600080fd5b612bdc8a828b016128d3565b91505092959891949750929550565b612bf4816135a5565b82525050565b612c038161356f565b82525050565b6000612c158385613564565b9350612c228385846135db565b82840190509392505050565b6000612c3982613548565b612c438185613553565b9350612c538185602086016135ea565b612c5c8161361d565b840191505092915050565b6000612c7282613548565b612c7c8185613564565b9350612c8c8185602086016135ea565b80840191505092915050565b600081546001811660008114612cb55760018114612cda57612d1e565b607f6002830416612cc68187613564565b955060ff1983168652808601935050612d1e565b60028204612ce88187613564565b9550612cf385613533565b60005b82811015612d1557815481890152600182019150602081019050612cf6565b82880195505050505b505092915050565b6000612d33601c83613553565b91507f506c6561736520656e74657220612076616c69642047616d6549642e000000006000830152602082019050919050565b6000612d73602783613553565b91507f46696e616c2073636f7265732068617665206e6f74206265656e20656e74657260008301527f6564207965742e000000000000000000000000000000000000000000000000006020830152604082019050919050565b6000612dd9602683613553565b91507f426574206d75737420626520312065746865722e20506c65617365207472792060008301527f616761696e2e00000000000000000000000000000000000000000000000000006020830152604082019050919050565b6000612e3f601083613553565b91507f47616d65206973206e6f74206f766572000000000000000000000000000000006000830152602082019050919050565b6000612e7f602483613553565b91507f47616d652068617320737461727465642e2042657474696e6720697320636c6f60008301527f7365642e000000000000000000000000000000000000000000000000000000006020830152604082019050919050565b6000612ee5602683613553565b91507f536f7272792c20746865207465616d20796f7520626574206f6e206469646e2760008301527f742077696e2e00000000000000000000000000000000000000000000000000006020830152604082019050919050565b6000612f4b601c83613553565b91507f546f6f206c61746520746f2063616e63656c207468652067616d652e000000006000830152602082019050919050565b6000612f8b602383613553565b91507f4d757374206265206f776e657220746f2075736520746869732066756e63746960008301527f6f6e2e00000000000000000000000000000000000000000000000000000000006020830152604082019050919050565b6000612ff1601183613553565b91507f557365206f776e6572206d6574686f642e0000000000000000000000000000006000830152602082019050919050565b6000613031601c83613553565b91507f596f7527766520616c726561647920706c616365642061206265742e000000006000830152602082019050919050565b6000613071600083613564565b9150600082019050919050565b600061308b602483613553565b91507f506c6561736520656e74657220612076616c6964205465616d20746f2062657460008301527f206f6e2e000000000000000000000000000000000000000000000000000000006020830152604082019050919050565b60006130f1601d83613553565b91507f5468657265206973206e6f7468696e6720746f2077697468647261772e0000006000830152602082019050919050565b61312d8161359b565b82525050565b6000613140828486612c09565b91508190509392505050565b60006131588284612c67565b915081905092915050565b600061316f8284612c98565b915081905092915050565b600061318582613064565b9150819050919050565b60006040820190506131a46000830185612beb565b81810360208301526131b68184612c2e565b90509392505050565b60006040820190506131d46000830185612beb565b6131e16020830184613124565b9392505050565b60006020820190506131fd6000830184612bfa565b92915050565b6000604082019050818103600083015261321d8185612c2e565b905061322c6020830184613124565b9392505050565b6000602082019050818103600083015261324c81612d26565b9050919050565b6000602082019050818103600083015261326c81612d66565b9050919050565b6000602082019050818103600083015261328c81612dcc565b9050919050565b600060208201905081810360008301526132ac81612e32565b9050919050565b600060208201905081810360008301526132cc81612e72565b9050919050565b600060208201905081810360008301526132ec81612ed8565b9050919050565b6000602082019050818103600083015261330c81612f3e565b9050919050565b6000602082019050818103600083015261332c81612f7e565b9050919050565b6000602082019050818103600083015261334c81612fe4565b9050919050565b6000602082019050818103600083015261336c81613024565b9050919050565b6000602082019050818103600083015261338c8161307e565b9050919050565b600060208201905081810360008301526133ac816130e4565b9050919050565b60006020820190506133c86000830184613124565b92915050565b60006040820190506133e36000830185613124565b81810360208301526133f58184612c2e565b90509392505050565b600061016082019050613414600083018e613124565b613421602083018d613124565b8181036040830152613433818c612c2e565b90508181036060830152613447818b612c2e565b9050818103608083015261345b818a612c2e565b905061346a60a0830189613124565b81810360c083015261347c8188612c2e565b905081810360e08301526134908187612c2e565b90506134a0610100830186613124565b8181036101208301526134b38185612c2e565b90508181036101408301526134c88184612c2e565b90509c9b505050505050505050505050565b6000604051905081810181811067ffffffffffffffff821117156134fd57600080fd5b8060405250919050565b600067ffffffffffffffff82111561351e57600080fd5b601f19601f8301169050602081019050919050565b60008190508160005260206000209050919050565b600081519050919050565b600082825260208201905092915050565b600081905092915050565b60008115159050919050565b600073ffffffffffffffffffffffffffffffffffffffff82169050919050565b6000819050919050565b60006135b0826135b7565b9050919050565b60006135c2826135c9565b9050919050565b60006135d48261357b565b9050919050565b82818337600083830152505050565b60005b838110156136085780820151818401526020810190506135ed565b83811115613617576000848401525b50505050565b6000601f19601f8301169050919050565b6136378161359b565b811461364257600080fd5b5056fea365627a7a723158207eceeb7954ff645a1406ca7ddf2a0c71165687296fde8e22f1dfb13ab74b97206c6578706572696d656e74616cf564736f6c63430005100040",
  "source": "pragma solidity >0.5.0 <0.6.0;\npragma experimental ABIEncoderV2;\nimport \"./safemath.sol\";\nimport \"./Game.sol\";\n\ncontract BallinChain is GameTemplate{\n    using SafeMath for uint256;\n    using SafeMath32 for uint32;\n    using SafeMath16 for uint16;\n\n    address payable internal contract_owner;\n    Game[] private games;\n    mapping (address => uint[]) userBettingHistory;\n    mapping (string => uint[]) dateToGames;\n\n    event NewGame(uint gameId, string date);\n    event BetEvent(address better, string team);\n    event WithdrawalEvent(address withdrawer, uint amount);\n    event CanceledGame(string reason, uint time);\n\n    function() external{\n\n    }\n\n    constructor () public{\n        contract_owner = msg.sender;\n    }\n\n    function createGame(uint256 _gameStart, uint256 _gameEnd, string memory _date, string memory _homeTeamName, string memory _homeTeamRecord, string memory _awayTeamName, string memory _awayTeamRecord) public only_owner() {\n        uint256 gameId = games.length;\n        Team memory homeTeam = Team(_homeTeamName, _homeTeamRecord, 0, 0);\n        Team memory awayTeam = Team(_awayTeamName, _awayTeamRecord, 0, 0);\n        games.push(Game(gameId, _gameStart, _gameEnd, _date, homeTeam, awayTeam, \"\", \"\", 0, 0));\n        dateToGames[_date].push(gameId);\n        emit NewGame(gameId, _date);\n    }\n\n    function betOnGame(uint256 _gameId, string memory _betTeam) public payable returns (bool){\n        require(msg.value == 1 ether, \"Bet must be 1 ether. Please try again.\");\n        require(keccak256(abi.encodePacked(games[_gameId].bets[msg.sender].betTeam)) == keccak256(abi.encodePacked(\"\")) && games[_gameId].bets[msg.sender].betAmount == 0, \"You've already placed a bet.\");\n        require(_gameId < games.length && _gameId >= 0, \"Please enter a valid GameId.\");\n        require(keccak256(abi.encodePacked(_betTeam)) == keccak256(abi.encodePacked(games[_gameId].homeTeam.teamName)) || keccak256(abi.encodePacked(_betTeam)) == keccak256(abi.encodePacked(games[_gameId].awayTeam.teamName)), \"Please enter a valid Team to bet on.\");\n        require(now < games[_gameId].game_start, \"Game has started. Betting is closed.\");\n        uint betAmount = 0;\n        betAmount = betAmount.add(msg.value);\n        games[_gameId].pool = games[_gameId].pool.add(betAmount);\n        games[_gameId].bets[msg.sender].betTeam = _betTeam;\n        games[_gameId].bets[msg.sender].betAmount = betAmount;\n        userBettingHistory[msg.sender].push(_gameId);\n        if(keccak256(abi.encodePacked(_betTeam)) == keccak256(abi.encodePacked(games[_gameId].homeTeam.teamName))){\n            games[_gameId].homeTeam.totalBetters = games[_gameId].homeTeam.totalBetters.add(1);\n            games[_gameId].homeTeam.totalAmount = games[_gameId].homeTeam.totalAmount.add(betAmount);\n        }\n        else{\n            games[_gameId].awayTeam.totalBetters = games[_gameId].awayTeam.totalBetters.add(1);\n            games[_gameId].awayTeam.totalAmount = games[_gameId].awayTeam.totalAmount.add(betAmount);\n        }\n        emit BetEvent(msg.sender, _betTeam);\n        return true;\n    }\n\n    function withdraw(uint _gameId) public returns (bool){\n        require(msg.sender != contract_owner, \"Use owner method.\");\n        require(games[_gameId].bets[msg.sender].betAmount > 0, \"There is nothing to withdraw.\");\n        require(now > games[_gameId].game_end, \"Game is not over\");\n        require(keccak256(abi.encodePacked(games[_gameId].winner)) != keccak256(abi.encodePacked(\"\")) && keccak256(abi.encodePacked(games[_gameId].score)) != keccak256(abi.encodePacked(\"\")), \"Final scores have not been entered yet.\");\n        require(keccak256(abi.encodePacked(games[_gameId].bets[msg.sender].betTeam)) == keccak256(abi.encodePacked(games[_gameId].winner)), \"Sorry, the team you bet on didn't win.\");\n        uint amount = games[_gameId].bets[msg.sender].betAmount;\n        games[_gameId].bets[msg.sender].betAmount = 0;\n        if(games[_gameId].homeTeam.totalBetters > 0 && games[_gameId].awayTeam.totalBetters > 0){\n            uint winningBetters = 0;\n            if(keccak256(abi.encodePacked(games[_gameId].homeTeam.teamName)) == keccak256(abi.encodePacked(games[_gameId].winner))){\n                winningBetters = winningBetters.add(games[_gameId].homeTeam.totalBetters);\n                uint winningsAmount = games[_gameId].finalPool;\n                winningsAmount = winningsAmount.sub(games[_gameId].homeTeam.totalAmount);\n                winningBetters = winningBetters.add(1);\n                winningsAmount = winningsAmount.div(winningBetters);\n                amount = amount.add(winningsAmount);\n            }\n            else{\n                winningBetters = winningBetters.add(games[_gameId].awayTeam.totalBetters);\n                uint winningsAmount = games[_gameId].finalPool;\n                winningsAmount = winningsAmount.sub(games[_gameId].awayTeam.totalAmount);\n                winningBetters = winningBetters.add(1);\n                winningsAmount = winningsAmount.div(winningBetters);\n                amount = amount.add(winningsAmount);\n            }\n        }\n        games[_gameId].pool = games[_gameId].pool.sub(amount);\n        msg.sender.transfer(amount);\n        emit WithdrawalEvent(msg.sender, amount);\n        return true;\n    }\n\n    function ownerWithdraw(uint _gameId) public only_owner returns (bool){\n        uint amount = games[_gameId].bets[msg.sender].betAmount;\n        games[_gameId].bets[msg.sender].betAmount = 0;\n        if(games[_gameId].homeTeam.totalBetters > 0 && games[_gameId].awayTeam.totalBetters > 0){\n            uint winningBetters = 0;\n            if(keccak256(abi.encodePacked(games[_gameId].homeTeam.teamName)) == keccak256(abi.encodePacked(games[_gameId].winner))){\n                winningBetters = winningBetters.add(games[_gameId].homeTeam.totalBetters);\n                uint winningsAmount = games[_gameId].finalPool;\n                winningsAmount = winningsAmount.sub(games[_gameId].homeTeam.totalAmount);\n                winningBetters = winningBetters.add(1);\n                winningsAmount = winningsAmount.div(winningBetters);\n                amount = amount.add(winningsAmount);\n            }\n            else{\n                winningBetters = winningBetters.add(games[_gameId].awayTeam.totalBetters);\n                uint winningsAmount = games[_gameId].finalPool;\n                winningsAmount = winningsAmount.sub(games[_gameId].awayTeam.totalAmount);\n                winningBetters = winningBetters.add(1);\n                winningsAmount = winningsAmount.div(winningBetters);\n                amount = amount.add(winningsAmount);\n            }\n        }\n        games[_gameId].pool = games[_gameId].pool.sub(amount);\n        msg.sender.transfer(amount);\n        emit WithdrawalEvent(msg.sender, amount);\n        return true;\n    }\n\n    function updateGameFinal(uint _gameId, string memory _winner, string memory _score) public only_owner returns (bool){\n        games[_gameId].winner = _winner;\n        games[_gameId].score = _score;\n        games[_gameId].finalPool = games[_gameId].pool;\n        return true;\n    }\n\n    function cancelGame(uint _gameId, string memory _reason) public only_owner returns (bool){\n        require(now < games[_gameId].game_start, \"Too late to cancel the game.\");\n        games[_gameId].game_start = now - 2;\n        games[_gameId].game_end = now - 1;\n        emit CanceledGame(_reason, now);\n        // add functionality to return payments to betters\n        return true;\n    }\n\n    function gameBalance(uint _gameId) external view returns(uint){\n        return games[_gameId].pool;\n    }\n\n    function getGamedData(uint _gameId) external view returns(uint gameStart, uint gameEnd, string memory date, string memory homeTeamName, string memory homeTeamRecord, uint homeTeamBetters, string memory awayTeamName, string memory awayTeamRecord, uint awayTeamBetters, string memory winner, string memory score){\n        gameStart = games[_gameId].game_start;\n        gameEnd = games[_gameId].game_end;\n        date = games[_gameId].date;\n        homeTeamName = games[_gameId].homeTeam.teamName;\n        homeTeamRecord = games[_gameId].homeTeam.record;\n        homeTeamBetters = games[_gameId].homeTeam.totalBetters;\n        awayTeamName = games[_gameId].awayTeam.teamName;\n        awayTeamRecord = games[_gameId].awayTeam.record;\n        awayTeamBetters = games[_gameId].awayTeam.totalBetters;\n        winner = games[_gameId].winner;\n        score = games[_gameId].score;\n    }\n\n    function totalGamesToday(string calldata _date) external view returns(uint){\n        return dateToGames[_date].length;\n    }\n\n    function getGameToday(string calldata _date, uint _index) external view returns(uint){\n        uint[] memory game = dateToGames[_date];\n        uint id = game[_index];\n        return id;\n    }\n\n    function totalUserBets() external view returns(uint){\n        return userBettingHistory[msg.sender].length;\n    }\n\n    function getGameBetData(uint _gameId) external view returns(string memory bettingTeam, uint betAmount){\n        bettingTeam = games[_gameId].bets[msg.sender].betTeam;\n        betAmount = games[_gameId].bets[msg.sender].betAmount;\n\n    }\n\n    function getGameFromHistory(uint _index) external view returns(uint){\n        //require(_index < userBettingHistory[msg.sender].length, \"Index out of bounds.\");\n        uint[] memory game = userBettingHistory[msg.sender];\n        uint id = game[_index];\n        return id;\n    }\n\n    modifier only_owner(){\n        require(msg.sender == contract_owner, \"Must be owner to use this function.\");\n        _;\n    }\n}\n\n",
  "sourcePath": "/home/tanner/CS483/FinalBallinChain/contracts/BallinChain.sol",
  "compiler": {
    "name": "solc",
    "version": "0.5.16+commit.9c3226ce.Emscripten.clang"
  },
  "schemaVersion": "3.1.0",
  "updatedAt": "2020-05-01T07:55:58.241Z",
  "networkType": "ethereum",
  "devdoc": {
    "methods": {}
  },
  "userdoc": {
    "methods": {}
  }
}